:060000000A128A11C12B57
:10078200A001A10183010A128A11312D4130831285
:1007920003139F00C030831603139F00080002302A
:1007A2008312031385008801850102308500013020
:1007B200880085011A30F100F830F000F00BDF2BD1
:1007C200F10BDF2B64000800F3000A3083120313DD
:1007D200850073088800083085000A30850070089B
:1007E2008800083085001A30F200F830F100F10B71
:1007F200F82BF20BF82B64000800F2000A30831287
:100802000313850072080F398800083085000A300A
:100812008500720E0F398800083085001A30F10009
:10082200F830F000F00B132CF10B132C64000800CD
:10083200F201F301322C8312031307150830F10081
:10084200C930F000F00B232CF10B232C282C83123F
:10085200031307110130F2070318F30A0030F307FC
:10086200322C7308803AFF0080307F02031D3B2C3C
:1008720014307202031C3E2C3F2C1C2C402C08000E
:100882000230831203138500023088008501023092
:1008920085000830880085011A30F300F830F20034
:1008A200F20B512CF30B512C640002308312031310
:1008B200850088018501023085000F30880085019E
:1008C2001A30F300F830F200F20B652CF30B652CB2
:1008D20064000A128A11D0230A128A110800F40055
:1008E200C530F2007208831203139F057408F200E8
:1008F20002300310F20DFF3E031D7A2C0310720D1D
:10090200F30073089F040330F3009730F200F20BF8
:10091200882CF30B882C8D2C831203131F15912C1A
:100922001F19942C952C912C962C1E08F200F30181
:100932007208F300F201831603131E087207F00017
:100942000030031801307307F100A72C08000830AB
:10095200831203138700F930F0006400F00BAE2C11
:10096200B22C640083120313870110308700183001
:100972008700F930F0006400F00BBC2CC02C64003E
:10098200831203138701870108308700F930F000D2
:100992006400F00BC92CCD2C640083120313870171
:1009A200870108308700F930F0006400F00BD62C84
:1009B200DA2C640083120313870110308700183089
:1009C2008700F930F0006400F00BE42CE82C64009E
:1009D2008312031387011030870008308700F93033
:1009E200F0006400F00BF22CF62C64008312031367
:1009F2008701870108308700F930F0006400F00BAE
:100A0200FF2C032D6400831203138701103087002B
:100A120018308700F930F0006400F00B0D2D112D15
:100A22006400831203138701103087001830870097
:100A3200F930F0006400F00B1B2D1F2D6400103004
:100A420083120313870008308316031387000830CC
:100A5200831203138700870183160313870108009B
:100A620001308316031386000930831203138600B4
:100A72008316031387011830831203138700113082
:100A820083160313850088010A128A1141240A126F
:100A92008A110A128A11C7230A128A110A128A11AA
:100AA200A8240A128A11FC01FD01572D8312031397
:100AB200051A5C2D5D2D7B2D7D087C04031D622DA6
:100AC200632D7B2D7B08F0390438FB007B080F393E
:100AD2003038FB007B080A128A11FE230A128A119F
:100AE2000A128A1119240A128A110130FC000030FC
:100AF200FD007B2D01307C067D04031D812D822D9E
:100B02008B2D83120313051E872D882D8B2DFC013F
:100B1200FD018B2D831203130618902D912D572D55
:100B22000A128A11D0230A128A110630FA007A08B0
:100B3200F00005300A128A11E5230A128A110F30D9
:100B4200FA007A08F00004300A128A11E5230A1228
:100B52008A110C30FA007A08F00004300A128A1165
:100B6200E5230A128A110430FA007A08F0000530EF
:100B72000A128A11E5230A128A11F0010314F00DF8
:100B820004300A128A11E5230A128A110730FA0088
:100B92007A08F00004300A128A11E5230A128A1137
:100BA2000530FA007A08F00004300A128A11E523AF
:100BB2000A128A110D30FA007A08F00003300A1284
:100BC2008A11E5230A128A1100300A128A1170244E
:100BD2000A128A11710883120313A101A107700876
:100BE200A001A0072108F801F8072008F701F7077C
:100BF2000A128A11FB260A128A11572D572D572DD8
:100C02000A128A1100280C30F6007608F000023031
:100C12000A128A11E5230A128A117508803AFF0026
:100C220080307F02031D172EB5307402031C1A2E6A
:100C32001B2E262E0930F6007608F00003300A1229
:100C42008A11E5230A128A11FA2E7508803AFF00EA
:100C520080307F02031D2F2EA1307402031C322E1E
:100C6200332E3E2E0830F6007608F00003300A12CA
:100C72008A11E5230A128A11FA2E7508803AFF00BA
:100C820080307F02031D472E8D307402031C4A2ED2
:100C92004B2E562E0730F6007608F00003300A126B
:100CA2008A11E5230A128A11FA2E7508803AFF008A
:100CB20080307F02031D5F2E79307402031C622E86
:100CC200632E6E2E0630F6007608F00003300A120C
:100CD2008A11E5230A128A11FA2E7508803AFF005A
:100CE20080307F02031D772E65307402031C7A2E3A
:100CF2007B2E862E0530F6007608F00003300A12AD
:100D02008A11E5230A128A11FA2E7508803AFF0029
:100D120080307F02031D8F2E51307402031C922EED
:100D2200932E9E2E0430F6007608F00003300A124D
:100D32008A11E5230A128A11FA2E7508803AFF00F9
:100D420080307F02031DA72E3D307402031CAA2EA1
:100D5200AB2EB62E0330F6007608F00003300A12EE
:100D62008A11E5230A128A11FA2E7508803AFF00C9
:100D720080307F02031DBF2E29307402031CC22E55
:100D8200C32ECE2E0230F6007608F00003300A128F
:100D92008A11E5230A128A11FA2E7508803AFF0099
:100DA20080307F02031DD72E15307402031CDA2E09
:100DB200DB2EE52EF0010314F00D03300A128A1126
:100DC200E5230A128A11FA2EF51BE82EE92EFA2ED5
:100DD200F00103300A128A11E5230A128A11FA2E4F
:100DE200FA2EFA2EFA2EFA2EFA2EFA2EFA2EFA2EC1
:100DF200FA2E08007808803AFF0080307F02031D37
:100E0200042FC83077020318072F082F1B2FF00179
:100E120003300A128A11E5230A128A117808F501B1
:100E2200F5077708F401F4070A128A1104260A1258
:100E32008A11FF2F7808803AFF0080307F02031D5D
:100E4200242FC9307702031C272F282F4C2F780814
:100E5200803AFF0081307F02031D312F90307702EC
:100E62000318342F352F4C2FF0010314F00D0330EB
:100E72000A128A11E5230A128A117708383EF40011
:100E820078080318013EFF3EF5000A128A11042673
:100E92000A128A11FF2F7808803AFF0081307F0200
:100EA200031D552F91307702031C582F592F7E2F87
:100EB2007808803AFF0082307F02031D622F58308B
:100EC20077020318652F662F7E2F0230F90079080A
:100ED200F00003300A128A11E5230A128A117708F8
:100EE200703EF40078080318013EFE3EF5000A1237
:100EF2008A1104260A128A11FF2F7808803AFF000D
:100F020082307F02031D872F59307702031C8A2FFC
:100F12008B2FB02F7808803AFF0083307F02031DA9
:100F2200942F203077020318972F982FB02F033079
:100F3200F9007908F00003300A128A11E5230A1237
:100F42008A117708A83EF40078080318013EFD3E96
:100F5200F5000A128A1104260A128A11FF2F780854
:100F6200803AFF0083307F02031DB92F21307702C0
:100F7200031CBC2FBD2FE22F7808803AFF0083307C
:100F82007F02031DC62FE83077020318C92FCA2F2C
:100F9200E22F0430F9007908F00003300A128A11B6
:100FA200E5230A128A117708E03EF4007808031854
:100FB200013EFC3EF5000A128A1104260A128A1129
:100FC200FF2F7808803AFF0083307F02031DEB2F4A
:100FD200E9307702031CEE2FEF2FFF2F0530F900C7
:100FE2007908F00003300A128A11E5230A128A11E5
:0E0FF200FF2FFF2FFF2FFF2FFF2FFF2F0800D5
:00000001FF
