:060000000A128A116F2CA8
:1008DE00A001A10183010A128A113B2D413083121E
:1008EE0003139F00C030831603139F0008000230CD
:1008FE0083120313850088018501023085000130C3
:10090E00880085011A30F100F830F000F00B8D2CC4
:10091E00F10B8D2C64000800F3000A3083120313D0
:10092E00850073088800083085000A30850070083D
:10093E008800083085001A30F200F830F100F10B13
:10094E00A62CF20BA62C64000800F201F301C52CB4
:10095E008312031307150830F100C930F000F00BB5
:10096E00B62CF10BB62CBB2C8312031307110130DE
:10097E00F2070318F30A0030F307C52C7308803A08
:10098E00FF0080307F02031DCE2C14307202031C38
:10099E00D12CD22CAF2CD32C08000230831203138F
:1009AE0085000230880085010230850008308800FD
:1009BE0085011A30F300F830F200F20BE42CF30B41
:1009CE00E42C640002308312031385008801850134
:1009DE00023085000F30880085011A30F300F830A0
:1009EE00F200F20BF82CF30BF82C64000A128A11A9
:1009FE007E240A128A110800F400C530F200720833
:100A0E00831203139F057408F20002300310F20DD7
:100A1E00FF3E031D0D2D0310720DF30073089F048E
:100A2E000330F3009730F200F20B1B2DF30B1B2D4E
:100A3E00202D831203131F15242D1F19272D282D4A
:100A4E00242D292D1E08F200F3017208F300F20185
:100A5E00831603131E087207F000003003180130CE
:100A6E007307F1003A2D0800013083160313860038
:100A7E000930831203138600831603138701831232
:100A8E0003138701113083160313850088010A12A0
:100A9E008A11D4240A128A110A128A1175240A1292
:100AAE008A11FB01FC015B2D83120313051A602DC5
:100ABE00612D7B2D7C087B04031D662D672D7B2D00
:100ACE000330FA007A08F00004300A128A119324D7
:100ADE000A128A110A128A11AC240A128A110130E2
:100AEE00FB000030FC007B2D01307B067C04031DD7
:100AFE00812D822D8B2D83120313051E872D882D9C
:100B0E008B2DFB01FC018B2D831203130618902DE8
:100B1E00912D5B2D0A128A117E240A128A1106303B
:100B2E00FA007A08F00005300A128A1193240A128C
:100B3E008A110F30FA007A08F00004300A128A1176
:100B4E0093240A128A110C30FA007A08F00004304D
:100B5E000A128A1193240A128A110430FA007A08B2
:100B6E00F00005300A128A1193240A128A11F0013C
:100B7E000314F00D04300A128A1193240A128A11FA
:100B8E000730FA007A08F00004300A128A11932412
:100B9E000A128A110530FA007A08F00004300A129F
:100BAE008A1193240A128A110D30FA007A08F00085
:100BBE0003300A128A1193240A128A1100300A1283
:100BCE008A1103250A128A11710883120313A101D7
:100BDE00A1077008A001A0072108F801F807200856
:100BEE00F701F7070A128A11FB260A128A115B2DEA
:100BFE005B2D5B2D0A128A1100280C30F600760848
:100C0E00F00002300A128A1193240A128A11750812
:100C1E00803AFF0080307F02031D172EB53074021C
:100C2E00031C1A2E1B2E262E0930F6007608F00015
:100C3E0003300A128A1193240A128A11FA2E7508A9
:100C4E00803AFF0080307F02031D2F2EA1307402E8
:100C5E00031C322E332E3E2E0830F6007608F0009E
:100C6E0003300A128A1193240A128A11FA2E750879
:100C7E00803AFF0080307F02031D472E8D307402B4
:100C8E00031C4A2E4B2E562E0730F6007608F00027
:100C9E0003300A128A1193240A128A11FA2E750849
:100CAE00803AFF0080307F02031D5F2E7930740280
:100CBE00031C622E632E6E2E0630F6007608F000B0
:100CCE0003300A128A1193240A128A11FA2E750819
:100CDE00803AFF0080307F02031D772E653074024C
:100CEE00031C7A2E7B2E862E0530F6007608F00039
:100CFE0003300A128A1193240A128A11FA2E7508E9
:100D0E00803AFF0080307F02031D8F2E5130740217
:100D1E00031C922E932E9E2E0430F6007608F000C1
:100D2E0003300A128A1193240A128A11FA2E7508B8
:100D3E00803AFF0080307F02031DA72E3D307402E3
:100D4E00031CAA2EAB2EB62E0330F6007608F0004A
:100D5E0003300A128A1193240A128A11FA2E750888
:100D6E00803AFF0080307F02031DBF2E29307402AF
:100D7E00031CC22EC32ECE2E0230F6007608F000D3
:100D8E0003300A128A1193240A128A11FA2E750858
:100D9E00803AFF0080307F02031DD72E153074027B
:100DAE00031CDA2EDB2EE52EF0010314F00D0330BA
:100DBE000A128A1193240A128A11FA2EF51BE82EB2
:100DCE00E92EFA2EF00103300A128A1193240A1228
:100DDE008A11FA2EFA2EFA2EFA2EFA2EFA2EFA2E52
:100DEE00FA2EFA2EFA2E08007808803AFF0080308C
:100DFE007F02031D042FC83077020318072F082F18
:100E0E001B2FF00103300A128A1193240A128A1141
:100E1E007808F501F5077708F401F4070A128A112C
:100E2E0004260A128A11FF2F7808803AFF008030BC
:100E3E007F02031D242FC9307702031C272F282F72
:100E4E004C2F7808803AFF0081307F02031D312F2E
:100E5E00903077020318342F352F4C2FF0010314E6
:100E6E00F00D03300A128A1193240A128A117708A0
:100E7E00383EF40078080318013EFF3EF5000A12D2
:100E8E008A1104260A128A11FF2F7808803AFF0071
:100E9E0081307F02031D552F91307702031C582F8E
:100EAE00592F7E2F7808803AFF0082307F02031D73
:100EBE00622F583077020318652F662F7E2F02306F
:100ECE00F9007908F00003300A128A1193240A12ED
:100EDE008A117708703EF40078080318013EFE3E32
:100EEE00F5000A128A1104260A128A11FF2F7808B9
:100EFE00803AFF0082307F02031D872F5930770220
:100F0E00031C8A2F8B2FB02F7808803AFF00833076
:100F1E007F02031D942F203077020318972F982FEE
:100F2E00B02F0330F9007908F00003300A128A114D
:100F3E0093240A128A117708A83EF4007808031841
:100F4E00013EFD3EF5000A128A1104260A128A118C
:100F5E00FF2F7808803AFF0083307F02031DB92FE0
:100F6E0021307702031CBC2FBD2FE22F7808803A68
:100F7E00FF0083307F02031DC62FE830770203186F
:100F8E00C92FCA2FE22F0430F9007908F000033080
:100F9E000A128A1193240A128A117708E03EF4008D
:100FAE0078080318013EFC3EF5000A128A11042649
:100FBE000A128A11FF2F7808803AFF0083307F02D1
:100FCE00031DEB2FE9307702031CEE2FEF2FFF2FBF
:100FDE000530F9007908F00003300A128A119324C3
:100FEE000A128A11FF2FFF2FFF2FFF2FFF2FFF2F28
:020FFE000800E9
:00000001FF
