:060000000A128A115F2FB5
:100EBE0083010A128A11632F8316031386010930E8
:100ECE0083120313860010308316031385008801E6
:100EDE000230831203138500023088008501023030
:100EEE0085000830880085011A30F100F830F000D6
:100EFE00F00B7F2FF10B7F2F640002308312031350
:100F0E00850088018501023085000F30880085013B
:100F1E001A30F100F830F000F00B932FF10B932FF5
:100F2E0064000230831203138500083088008501A7
:100F3E0002308500880185011A30F100F830F0008A
:100F4E00F00BA72FF10BA72F64000A3083120313A7
:100F5E00850004308800083085000A308500013095
:100F6E008800083085001A30F100F830F000F00BE0
:100F7E00BE2FF10BBE2F6400F201F301C62F8312B8
:100F8E000313051ACB2FCC2FEB2F73087204031DFE
:100F9E00D12FD22FEB2F0A30850004308800083075
:100FAE0085000A30850001308800083085001A302F
:100FBE00F100F830F000F00BE22FF10BE22F64009D
:100FCE000130F2000030F300013072067304031D8D
:100FDE00F12FF22FC62F83120313051EF72FF82FB2
:100FEE00C62FF201F301C62FC62FC62F0A128A1181
:020FFE000028C9
:00000001FF
